{
  "_format": "hh-sol-artifact-1",
  "contractName": "RegyCoin",
  "sourceName": "contracts/RegyCoin.sol",
  "abi": [
    {
      "inputs": [
        {
          "internalType": "string",
          "name": "name_",
          "type": "string"
        },
        {
          "internalType": "string",
          "name": "symbol_",
          "type": "string"
        },
        {
          "internalType": "uint256",
          "name": "decimals_",
          "type": "uint256"
        },
        {
          "internalType": "uint256",
          "name": "initialSupply",
          "type": "uint256"
        },
        {
          "internalType": "address",
          "name": "Owner_",
          "type": "address"
        }
      ],
      "stateMutability": "nonpayable",
      "type": "constructor"
    },
    {
      "anonymous": false,
      "inputs": [
        {
          "indexed": true,
          "internalType": "address",
          "name": "owner",
          "type": "address"
        },
        {
          "indexed": true,
          "internalType": "address",
          "name": "spender",
          "type": "address"
        },
        {
          "indexed": false,
          "internalType": "uint256",
          "name": "value",
          "type": "uint256"
        }
      ],
      "name": "Approval",
      "type": "event"
    },
    {
      "anonymous": false,
      "inputs": [
        {
          "indexed": true,
          "internalType": "address",
          "name": "previousOwner",
          "type": "address"
        },
        {
          "indexed": true,
          "internalType": "address",
          "name": "newOwner",
          "type": "address"
        }
      ],
      "name": "OwnershipTransferred",
      "type": "event"
    },
    {
      "anonymous": false,
      "inputs": [
        {
          "indexed": true,
          "internalType": "address",
          "name": "from",
          "type": "address"
        },
        {
          "indexed": true,
          "internalType": "address",
          "name": "to",
          "type": "address"
        },
        {
          "indexed": false,
          "internalType": "uint256",
          "name": "value",
          "type": "uint256"
        }
      ],
      "name": "Transfer",
      "type": "event"
    },
    {
      "inputs": [],
      "name": "_owner",
      "outputs": [
        {
          "internalType": "address",
          "name": "",
          "type": "address"
        }
      ],
      "stateMutability": "view",
      "type": "function"
    },
    {
      "inputs": [
        {
          "internalType": "address",
          "name": "owner",
          "type": "address"
        },
        {
          "internalType": "address",
          "name": "spender",
          "type": "address"
        }
      ],
      "name": "allowance",
      "outputs": [
        {
          "internalType": "uint256",
          "name": "",
          "type": "uint256"
        }
      ],
      "stateMutability": "view",
      "type": "function"
    },
    {
      "inputs": [
        {
          "internalType": "address",
          "name": "spender",
          "type": "address"
        },
        {
          "internalType": "uint256",
          "name": "amount",
          "type": "uint256"
        }
      ],
      "name": "approve",
      "outputs": [
        {
          "internalType": "bool",
          "name": "",
          "type": "bool"
        }
      ],
      "stateMutability": "nonpayable",
      "type": "function"
    },
    {
      "inputs": [
        {
          "internalType": "address",
          "name": "account",
          "type": "address"
        }
      ],
      "name": "balanceOf",
      "outputs": [
        {
          "internalType": "uint256",
          "name": "",
          "type": "uint256"
        }
      ],
      "stateMutability": "view",
      "type": "function"
    },
    {
      "inputs": [
        {
          "internalType": "uint256",
          "name": "amount",
          "type": "uint256"
        }
      ],
      "name": "burn",
      "outputs": [],
      "stateMutability": "nonpayable",
      "type": "function"
    },
    {
      "inputs": [
        {
          "internalType": "address",
          "name": "account",
          "type": "address"
        },
        {
          "internalType": "uint256",
          "name": "amount",
          "type": "uint256"
        }
      ],
      "name": "burnFrom",
      "outputs": [],
      "stateMutability": "nonpayable",
      "type": "function"
    },
    {
      "inputs": [],
      "name": "decimals",
      "outputs": [
        {
          "internalType": "uint256",
          "name": "",
          "type": "uint256"
        }
      ],
      "stateMutability": "view",
      "type": "function"
    },
    {
      "inputs": [
        {
          "internalType": "address",
          "name": "spender",
          "type": "address"
        },
        {
          "internalType": "uint256",
          "name": "subtractedValue",
          "type": "uint256"
        }
      ],
      "name": "decreaseAllowance",
      "outputs": [
        {
          "internalType": "bool",
          "name": "",
          "type": "bool"
        }
      ],
      "stateMutability": "nonpayable",
      "type": "function"
    },
    {
      "inputs": [
        {
          "internalType": "address",
          "name": "spender",
          "type": "address"
        },
        {
          "internalType": "uint256",
          "name": "addedValue",
          "type": "uint256"
        }
      ],
      "name": "increaseAllowance",
      "outputs": [
        {
          "internalType": "bool",
          "name": "",
          "type": "bool"
        }
      ],
      "stateMutability": "nonpayable",
      "type": "function"
    },
    {
      "inputs": [],
      "name": "name",
      "outputs": [
        {
          "internalType": "string",
          "name": "",
          "type": "string"
        }
      ],
      "stateMutability": "view",
      "type": "function"
    },
    {
      "inputs": [],
      "name": "owner",
      "outputs": [
        {
          "internalType": "address",
          "name": "",
          "type": "address"
        }
      ],
      "stateMutability": "view",
      "type": "function"
    },
    {
      "inputs": [],
      "name": "renounceOwnership",
      "outputs": [],
      "stateMutability": "nonpayable",
      "type": "function"
    },
    {
      "inputs": [],
      "name": "symbol",
      "outputs": [
        {
          "internalType": "string",
          "name": "",
          "type": "string"
        }
      ],
      "stateMutability": "view",
      "type": "function"
    },
    {
      "inputs": [],
      "name": "totalSupply",
      "outputs": [
        {
          "internalType": "uint256",
          "name": "",
          "type": "uint256"
        }
      ],
      "stateMutability": "view",
      "type": "function"
    },
    {
      "inputs": [
        {
          "internalType": "address",
          "name": "to",
          "type": "address"
        },
        {
          "internalType": "uint256",
          "name": "amount",
          "type": "uint256"
        }
      ],
      "name": "transfer",
      "outputs": [
        {
          "internalType": "bool",
          "name": "",
          "type": "bool"
        }
      ],
      "stateMutability": "nonpayable",
      "type": "function"
    },
    {
      "inputs": [
        {
          "internalType": "address",
          "name": "from",
          "type": "address"
        },
        {
          "internalType": "address",
          "name": "to",
          "type": "address"
        },
        {
          "internalType": "uint256",
          "name": "amount",
          "type": "uint256"
        }
      ],
      "name": "transferFrom",
      "outputs": [
        {
          "internalType": "bool",
          "name": "",
          "type": "bool"
        }
      ],
      "stateMutability": "nonpayable",
      "type": "function"
    },
    {
      "inputs": [
        {
          "internalType": "address",
          "name": "newOwner",
          "type": "address"
        }
      ],
      "name": "transferOwnership",
      "outputs": [],
      "stateMutability": "nonpayable",
      "type": "function"
    }
  ],
  "bytecode": "0x60806040526000196008553480156200001757600080fd5b5060405162001315380380620013158339810160408190526200003a91620003b6565b620000453362000109565b84516200005a90600590602088019062000243565b5083516200007090600690602087019062000243565b5060078390556200008383600a6200056d565b600981905562000094908362000582565b600a819055600854620000a89190620005a4565b600854620000b79190620005c7565b600b819055600380546001600160a01b0319166001600160a01b038416908117909155600090815260046020526040902055620000fe620000f53390565b600a546200015b565b505050505062000639565b600380546001600160a01b038381166001600160a01b0319831681179093556040519116919082907f8be0079c531659141344cd1fd0a4f28419497f9722a3daafe3b4186f6b6457e090600090a35050565b6001600160a01b038216620001b65760405162461bcd60e51b815260206004820152601f60248201527f42455032303a206d696e7420746f20746865207a65726f206164647265737300604482015260640160405180910390fd5b8060026000828254620001ca9190620005e1565b90915550506001600160a01b03821660009081526020819052604081208054839290620001f9908490620005e1565b90915550506040518181526001600160a01b038316906000907fddf252ad1be2c89b69c2b068fc378daa952ba7f163c4a11628f55a4df523b3ef9060200160405180910390a35050565b8280546200025190620005fc565b90600052602060002090601f016020900481019282620002755760008555620002c0565b82601f106200029057805160ff1916838001178555620002c0565b82800160010185558215620002c0579182015b82811115620002c0578251825591602001919060010190620002a3565b50620002ce929150620002d2565b5090565b5b80821115620002ce5760008155600101620002d3565b634e487b7160e01b600052604160045260246000fd5b600082601f8301126200031157600080fd5b81516001600160401b03808211156200032e576200032e620002e9565b604051601f8301601f19908116603f01168101908282118183101715620003595762000359620002e9565b816040528381526020925086838588010111156200037657600080fd5b600091505b838210156200039a57858201830151818301840152908201906200037b565b83821115620003ac5760008385830101525b9695505050505050565b600080600080600060a08688031215620003cf57600080fd5b85516001600160401b0380821115620003e757600080fd5b620003f589838a01620002ff565b965060208801519150808211156200040c57600080fd5b506200041b88828901620002ff565b6040880151606089015160808a0151929750909550935090506001600160a01b03811681146200044a57600080fd5b809150509295509295909350565b634e487b7160e01b600052601160045260246000fd5b600181815b80851115620004af57816000190482111562000493576200049362000458565b80851615620004a157918102915b93841c939080029062000473565b509250929050565b600082620004c85750600162000567565b81620004d75750600062000567565b8160018114620004f05760028114620004fb576200051b565b600191505062000567565b60ff8411156200050f576200050f62000458565b50506001821b62000567565b5060208310610133831016604e8410600b841016171562000540575081810a62000567565b6200054c83836200046e565b806000190482111562000563576200056362000458565b0290505b92915050565b60006200057b8383620004b7565b9392505050565b60008160001904831182151516156200059f576200059f62000458565b500290565b600082620005c257634e487b7160e01b600052601260045260246000fd5b500690565b600082821015620005dc57620005dc62000458565b500390565b60008219821115620005f757620005f762000458565b500190565b600181811c908216806200061157607f821691505b602082108114156200063357634e487b7160e01b600052602260045260246000fd5b50919050565b610ccc80620006496000396000f3fe608060405234801561001057600080fd5b506004361061010b5760003560e01c8063715018a6116100a2578063a457c2d711610071578063a457c2d714610217578063a9059cbb1461022a578063b2bdfa7b1461023d578063dd62ed3e14610250578063f2fde38b1461028957600080fd5b8063715018a6146101cf57806379cc6790146101d75780638da5cb5b146101ea57806395d89b411461020f57600080fd5b8063313ce567116100de578063313ce56714610176578063395093511461017e57806342966c681461019157806370a08231146101a657600080fd5b806306fdde0314610110578063095ea7b31461012e57806318160ddd1461015157806323b872dd14610163575b600080fd5b61011861029c565b6040516101259190610a9c565b60405180910390f35b61014161013c366004610b0d565b61032e565b6040519015158152602001610125565b6002545b604051908152602001610125565b610141610171366004610b37565b610346565b600754610155565b61014161018c366004610b0d565b61036a565b6101a461019f366004610b73565b6103a9565b005b6101556101b4366004610b8c565b6001600160a01b031660009081526020819052604090205490565b6101a46103e9565b6101a46101e5366004610b0d565b61041f565b6003546001600160a01b03165b6040516001600160a01b039091168152602001610125565b610118610438565b610141610225366004610b0d565b610447565b610141610238366004610b0d565b6104d9565b6003546101f7906001600160a01b031681565b61015561025e366004610bae565b6001600160a01b03918216600090815260016020908152604080832093909416825291909152205490565b6101a4610297366004610b8c565b6104e7565b6060600580546102ab90610be1565b80601f01602080910402602001604051908101604052809291908181526020018280546102d790610be1565b80156103245780601f106102f957610100808354040283529160200191610324565b820191906000526020600020905b81548152906001019060200180831161030757829003601f168201915b5050505050905090565b60003361033c81858561057f565b5060019392505050565b6000336103548582856106a4565b61035f858585610736565b506001949350505050565b3360008181526001602090815260408083206001600160a01b038716845290915281205490919061033c90829086906103a4908790610c32565b61057f565b6003546001600160a01b031633146103dc5760405162461bcd60e51b81526004016103d390610c4a565b60405180910390fd5b6103e63382610904565b50565b6003546001600160a01b031633146104135760405162461bcd60e51b81526004016103d390610c4a565b61041d6000610a4a565b565b61042a8233836106a4565b6104348282610904565b5050565b6060600680546102ab90610be1565b3360008181526001602090815260408083206001600160a01b0387168452909152812054909190838110156104cc5760405162461bcd60e51b815260206004820152602560248201527f42455032303a2064656372656173656420616c6c6f77616e63652062656c6f77604482015264207a65726f60d81b60648201526084016103d3565b61035f828686840361057f565b60003361033c818585610736565b6003546001600160a01b031633146105115760405162461bcd60e51b81526004016103d390610c4a565b6001600160a01b0381166105765760405162461bcd60e51b815260206004820152602660248201527f4f776e61626c653a206e6577206f776e657220697320746865207a65726f206160448201526564647265737360d01b60648201526084016103d3565b6103e681610a4a565b6001600160a01b0383166105e15760405162461bcd60e51b8152602060048201526024808201527f42455032303a20617070726f76652066726f6d20746865207a65726f206164646044820152637265737360e01b60648201526084016103d3565b6001600160a01b0382166106425760405162461bcd60e51b815260206004820152602260248201527f42455032303a20617070726f766520746f20746865207a65726f206164647265604482015261737360f01b60648201526084016103d3565b6001600160a01b0383811660008181526001602090815260408083209487168084529482529182902085905590518481527f8c5be1e5ebec7d5bd14f71427d1e84f3dd0314c0f7b2291e5b200ac8c7c3b92591015b60405180910390a3505050565b6001600160a01b03838116600090815260016020908152604080832093861683529290522054600019811461073057818110156107235760405162461bcd60e51b815260206004820152601d60248201527f42455032303a20696e73756666696369656e7420616c6c6f77616e636500000060448201526064016103d3565b610730848484840361057f565b50505050565b6001600160a01b03831661079a5760405162461bcd60e51b815260206004820152602560248201527f42455032303a207472616e736665722066726f6d20746865207a65726f206164604482015264647265737360d81b60648201526084016103d3565b6001600160a01b0382166107fc5760405162461bcd60e51b815260206004820152602360248201527f42455032303a207472616e7366657220746f20746865207a65726f206164647260448201526265737360e81b60648201526084016103d3565b6001600160a01b038316600090815260208190526040902054818110156108745760405162461bcd60e51b815260206004820152602660248201527f42455032303a207472616e7366657220616d6f756e7420657863656564732062604482015265616c616e636560d01b60648201526084016103d3565b6001600160a01b038085166000908152602081905260408082208585039055918516815290812080548492906108ab908490610c32565b92505081905550826001600160a01b0316846001600160a01b03167fddf252ad1be2c89b69c2b068fc378daa952ba7f163c4a11628f55a4df523b3ef846040516108f791815260200190565b60405180910390a3610730565b6001600160a01b0382166109645760405162461bcd60e51b815260206004820152602160248201527f42455032303a206275726e2066726f6d20746865207a65726f206164647265736044820152607360f81b60648201526084016103d3565b6001600160a01b038216600090815260208190526040902054818110156109d85760405162461bcd60e51b815260206004820152602260248201527f42455032303a206275726e20616d6f756e7420657863656564732062616c616e604482015261636560f01b60648201526084016103d3565b6001600160a01b0383166000908152602081905260408120838303905560028054849290610a07908490610c7f565b90915550506040518281526000906001600160a01b038516907fddf252ad1be2c89b69c2b068fc378daa952ba7f163c4a11628f55a4df523b3ef90602001610697565b600380546001600160a01b038381166001600160a01b0319831681179093556040519116919082907f8be0079c531659141344cd1fd0a4f28419497f9722a3daafe3b4186f6b6457e090600090a35050565b600060208083528351808285015260005b81811015610ac957858101830151858201604001528201610aad565b81811115610adb576000604083870101525b50601f01601f1916929092016040019392505050565b80356001600160a01b0381168114610b0857600080fd5b919050565b60008060408385031215610b2057600080fd5b610b2983610af1565b946020939093013593505050565b600080600060608486031215610b4c57600080fd5b610b5584610af1565b9250610b6360208501610af1565b9150604084013590509250925092565b600060208284031215610b8557600080fd5b5035919050565b600060208284031215610b9e57600080fd5b610ba782610af1565b9392505050565b60008060408385031215610bc157600080fd5b610bca83610af1565b9150610bd860208401610af1565b90509250929050565b600181811c90821680610bf557607f821691505b60208210811415610c1657634e487b7160e01b600052602260045260246000fd5b50919050565b634e487b7160e01b600052601160045260246000fd5b60008219821115610c4557610c45610c1c565b500190565b6020808252818101527f4f776e61626c653a2063616c6c6572206973206e6f7420746865206f776e6572604082015260600190565b600082821015610c9157610c91610c1c565b50039056fea26469706673582212209bd8d6600b578dc40b086a547e9723ee599b89b27c3db874c04dd56d60c3feb464736f6c63430008090033",
  "linkReferences": {},
  "deployedLinkReferences": {}
}