{
  "_format": "hh-sol-artifact-1",
  "contractName": "SeedSale",
  "sourceName": "contracts/RegyCoin.sol",
  "abi": [
    {
      "inputs": [
        {
          "internalType": "address",
          "name": "_busd",
          "type": "address"
        },
        {
          "internalType": "address",
          "name": "_town",
          "type": "address"
        },
        {
          "internalType": "uint256",
          "name": "_seedTokenPrice",
          "type": "uint256"
        },
        {
          "internalType": "address",
          "name": "_townOwner",
          "type": "address"
        }
      ],
      "stateMutability": "nonpayable",
      "type": "constructor"
    },
    {
      "anonymous": false,
      "inputs": [
        {
          "indexed": true,
          "internalType": "address",
          "name": "previousOwner",
          "type": "address"
        },
        {
          "indexed": true,
          "internalType": "address",
          "name": "newOwner",
          "type": "address"
        }
      ],
      "name": "OwnershipTransferred",
      "type": "event"
    },
    {
      "anonymous": false,
      "inputs": [
        {
          "indexed": true,
          "internalType": "address",
          "name": "_buyer",
          "type": "address"
        },
        {
          "indexed": false,
          "internalType": "uint256",
          "name": "_givenBUDS",
          "type": "uint256"
        },
        {
          "indexed": false,
          "internalType": "uint256",
          "name": "_receivedTown",
          "type": "uint256"
        }
      ],
      "name": "buyTokensSuccess",
      "type": "event"
    },
    {
      "anonymous": false,
      "inputs": [
        {
          "indexed": true,
          "internalType": "address",
          "name": "_owner",
          "type": "address"
        },
        {
          "indexed": false,
          "internalType": "uint256",
          "name": "_townAmount",
          "type": "uint256"
        }
      ],
      "name": "withdrawTokensSuccess",
      "type": "event"
    },
    {
      "inputs": [],
      "name": "_owner",
      "outputs": [
        {
          "internalType": "address",
          "name": "",
          "type": "address"
        }
      ],
      "stateMutability": "view",
      "type": "function"
    },
    {
      "inputs": [],
      "name": "busd",
      "outputs": [
        {
          "internalType": "contract IBEP20",
          "name": "",
          "type": "address"
        }
      ],
      "stateMutability": "view",
      "type": "function"
    },
    {
      "inputs": [
        {
          "internalType": "uint256",
          "name": "_busd",
          "type": "uint256"
        }
      ],
      "name": "buyTokens",
      "outputs": [],
      "stateMutability": "nonpayable",
      "type": "function"
    },
    {
      "inputs": [],
      "name": "getBalance",
      "outputs": [
        {
          "internalType": "uint256",
          "name": "",
          "type": "uint256"
        }
      ],
      "stateMutability": "view",
      "type": "function"
    },
    {
      "inputs": [],
      "name": "getTotalRaised",
      "outputs": [
        {
          "internalType": "uint256",
          "name": "",
          "type": "uint256"
        }
      ],
      "stateMutability": "view",
      "type": "function"
    },
    {
      "inputs": [
        {
          "internalType": "address",
          "name": "_walletAddress",
          "type": "address"
        }
      ],
      "name": "getTownBalance",
      "outputs": [
        {
          "internalType": "uint256",
          "name": "",
          "type": "uint256"
        }
      ],
      "stateMutability": "view",
      "type": "function"
    },
    {
      "inputs": [],
      "name": "getWithdrawAddress",
      "outputs": [
        {
          "internalType": "address",
          "name": "",
          "type": "address"
        }
      ],
      "stateMutability": "view",
      "type": "function"
    },
    {
      "inputs": [],
      "name": "getWithdrawalStatus",
      "outputs": [
        {
          "internalType": "bool",
          "name": "",
          "type": "bool"
        }
      ],
      "stateMutability": "view",
      "type": "function"
    },
    {
      "inputs": [],
      "name": "owner",
      "outputs": [
        {
          "internalType": "address",
          "name": "",
          "type": "address"
        }
      ],
      "stateMutability": "view",
      "type": "function"
    },
    {
      "inputs": [],
      "name": "renounceOwnership",
      "outputs": [],
      "stateMutability": "nonpayable",
      "type": "function"
    },
    {
      "inputs": [
        {
          "internalType": "address payable",
          "name": "ownerAddress",
          "type": "address"
        }
      ],
      "name": "setWithAdress",
      "outputs": [],
      "stateMutability": "nonpayable",
      "type": "function"
    },
    {
      "inputs": [],
      "name": "toggleOpenCloseWithdrawal",
      "outputs": [
        {
          "internalType": "bool",
          "name": "",
          "type": "bool"
        }
      ],
      "stateMutability": "nonpayable",
      "type": "function"
    },
    {
      "inputs": [],
      "name": "totalBalance",
      "outputs": [
        {
          "internalType": "uint256",
          "name": "",
          "type": "uint256"
        }
      ],
      "stateMutability": "view",
      "type": "function"
    },
    {
      "inputs": [],
      "name": "town",
      "outputs": [
        {
          "internalType": "contract IBEP20",
          "name": "",
          "type": "address"
        }
      ],
      "stateMutability": "view",
      "type": "function"
    },
    {
      "inputs": [
        {
          "internalType": "address",
          "name": "newOwner",
          "type": "address"
        }
      ],
      "name": "transferOwnership",
      "outputs": [],
      "stateMutability": "nonpayable",
      "type": "function"
    },
    {
      "inputs": [],
      "name": "withdToBNB",
      "outputs": [],
      "stateMutability": "nonpayable",
      "type": "function"
    },
    {
      "inputs": [
        {
          "internalType": "address",
          "name": "_contractAdd",
          "type": "address"
        }
      ],
      "name": "withdTokens",
      "outputs": [],
      "stateMutability": "nonpayable",
      "type": "function"
    },
    {
      "inputs": [
        {
          "internalType": "uint256",
          "name": "_townAmount",
          "type": "uint256"
        }
      ],
      "name": "withdraw",
      "outputs": [
        {
          "internalType": "bool",
          "name": "",
          "type": "bool"
        }
      ],
      "stateMutability": "nonpayable",
      "type": "function"
    }
  ],
  "bytecode": "0x608060405234801561001057600080fd5b50604051610fee380380610fee83398101604081905261002f91610113565b610038336100a7565b6001808055600280546001600160a01b03199081166001600160a01b03978816179091556003805482169587169590951790945560049290925560006006819055805490931693169290921790556a06342fd08f00f6378000006008556007805460ff19169091179055610160565b600080546001600160a01b038381166001600160a01b0319831681178455604051919092169283917f8be0079c531659141344cd1fd0a4f28419497f9722a3daafe3b4186f6b6457e09190a35050565b80516001600160a01b038116811461010e57600080fd5b919050565b6000806000806080858703121561012957600080fd5b610132856100f7565b9350610140602086016100f7565b925060408501519150610155606086016100f7565b905092959194509250565b610e7f8061016f6000396000f3fe608060405234801561001057600080fd5b50600436106101165760003560e01c80639f550293116100a2578063bde4d5cb11610071578063bde4d5cb1461020b578063e11f8ad314610234578063e8e7f80014610247578063f2fde38b14610258578063f5f3468f1461026b57600080fd5b80639f550293146101e1578063ad7a672f146101e9578063afb13dee146101f0578063b2bdfa7b146101f857600080fd5b80633ca5b234116100e95780633ca5b2341461017f578063715018a6146101aa57806387875a4d146101b25780638da5cb5b146101c557806398fa7668146101d657600080fd5b806312065fe01461011b57806322c4d59e1461013f5780632e1a7d4d146101575780633610724e1461016a575b600080fd5b336000908152600960205260409020545b6040519081526020015b60405180910390f35b61014761027e565b6040519015158152602001610136565b610147610165366004610c1b565b6102ca565b61017d610178366004610c1b565b61048f565b005b600254610192906001600160a01b031681565b6040516001600160a01b039091168152602001610136565b61017d6106b6565b61017d6101c0366004610c49565b6106ec565b6000546001600160a01b0316610192565b60075460ff16610147565b60065461012c565b303161012c565b61017d610738565b600054610192906001600160a01b031681565b61012c610219366004610c49565b6001600160a01b031660009081526009602052604090205490565b61017d610242366004610c49565b6108d8565b6005546001600160a01b0316610192565b61017d610266366004610c49565b610a54565b600354610192906001600160a01b031681565b600080546001600160a01b031633146102b25760405162461bcd60e51b81526004016102a990610c66565b60405180910390fd5b506007805460ff81161560ff19909116811790915590565b60075460009060ff16156103205760405162461bcd60e51b815260206004820152601a60248201527f5769746864726177616c206e6f7420656e61626c65642079657400000000000060448201526064016102a9565b33600090815260096020526040902054808311156103765760405162461bcd60e51b8152602060048201526013602482015272496e737566696369656e742062616c616e636560681b60448201526064016102a9565b6003546040516323b872dd60e01b8152306004820152336024820152604481018590526000916001600160a01b0316906323b872dd90606401602060405180830381600087803b1580156103c957600080fd5b505af11580156103dd573d6000803e3d6000fd5b505050506040513d601f19601f820116820180604052508101906104019190610c9b565b9050806104505760405162461bcd60e51b815260206004820152601e60248201527f4572726f72207768696c65207472616e73666572696e6720617373657473000060448201526064016102a9565b60405184815233907f8f82b58300ff624c83aa152ee04671b18b0a4934e6ed2c17bd79701fcd612b1e9060200160405180910390a25060019392505050565b600260015414156104e25760405162461bcd60e51b815260206004820152601f60248201527f5265656e7472616e637947756172643a207265656e7472616e742063616c6c0060448201526064016102a9565b6002600155806105345760405162461bcd60e51b815260206004820181905260248201527f416d6f756e74206d7573742062652067726561746572207468616e207a65726f60448201526064016102a9565b6002546040516323b872dd60e01b8152336004820152306024820152604481018390526000916001600160a01b0316906323b872dd90606401602060405180830381600087803b15801561058757600080fd5b505af115801561059b573d6000803e3d6000fd5b505050506040513d601f19601f820116820180604052508101906105bf9190610c9b565b90508061060e5760405162461bcd60e51b815260206004820152601b60248201527f4661696c207768696c65207472616e73666572696e672042555344000000000060448201526064016102a9565b600061062560045484610aec90919063ffffffff16565b905061063981670de0b6b3a7640000610cd3565b3360009081526009602052604081208054929350839290919061065d908490610cf2565b909155505060065461066f9084610b35565b600655604080518481526020810183905233917f53796f0b730e8c6d605614fd9535eaf6d96c624a46cdd5c4f0769f21b0f7fae8910160405180910390a250506001805550565b6000546001600160a01b031633146106e05760405162461bcd60e51b81526004016102a990610c66565b6106ea6000610b94565b565b6000546001600160a01b031633146107165760405162461bcd60e51b81526004016102a990610c66565b600580546001600160a01b0319166001600160a01b0392909216919091179055565b6000546001600160a01b031633146107625760405162461bcd60e51b81526004016102a990610c66565b6005546001600160a01b031661078a5760405162461bcd60e51b81526004016102a990610d0a565b6000306001600160a01b031663ad7a672f6040518163ffffffff1660e01b815260040160206040518083038186803b1580156107c557600080fd5b505afa1580156107d9573d6000803e3d6000fd5b505050506040513d601f19601f820116820180604052508101906107fd9190610d67565b1161081a5760405162461bcd60e51b81526004016102a990610d80565b600560009054906101000a90046001600160a01b03166001600160a01b03166108fc306001600160a01b031663ad7a672f6040518163ffffffff1660e01b815260040160206040518083038186803b15801561087557600080fd5b505afa158015610889573d6000803e3d6000fd5b505050506040513d601f19601f820116820180604052508101906108ad9190610d67565b6040518115909202916000818181858888f193505050501580156108d5573d6000803e3d6000fd5b50565b6000546001600160a01b031633146109025760405162461bcd60e51b81526004016102a990610c66565b6005546001600160a01b031661092a5760405162461bcd60e51b81526004016102a990610d0a565b6040516370a0823160e01b815230600482015281906000906001600160a01b038316906370a082319060240160206040518083038186803b15801561096e57600080fd5b505afa158015610982573d6000803e3d6000fd5b505050506040513d601f19601f820116820180604052508101906109a69190610d67565b9050600081116109c85760405162461bcd60e51b81526004016102a990610d80565b60055460405163a9059cbb60e01b81526001600160a01b039182166004820152602481018390529083169063a9059cbb90604401602060405180830381600087803b158015610a1657600080fd5b505af1158015610a2a573d6000803e3d6000fd5b505050506040513d601f19601f82011682018060405250810190610a4e9190610c9b565b50505050565b6000546001600160a01b03163314610a7e5760405162461bcd60e51b81526004016102a990610c66565b6001600160a01b038116610ae35760405162461bcd60e51b815260206004820152602660248201527f4f776e61626c653a206e6577206f776e657220697320746865207a65726f206160448201526564647265737360d01b60648201526084016102a9565b6108d581610b94565b6000610b2e83836040518060400160405280601a81526020017f536166654d6174683a206469766973696f6e206279207a65726f000000000000815250610be4565b9392505050565b600080610b428385610cf2565b905083811015610b2e5760405162461bcd60e51b815260206004820152601b60248201527f536166654d6174683a206164646974696f6e206f766572666c6f77000000000060448201526064016102a9565b600080546001600160a01b038381166001600160a01b0319831681178455604051919092169283917f8be0079c531659141344cd1fd0a4f28419497f9722a3daafe3b4186f6b6457e09190a35050565b60008183610c055760405162461bcd60e51b81526004016102a99190610dd2565b506000610c128486610e27565b95945050505050565b600060208284031215610c2d57600080fd5b5035919050565b6001600160a01b03811681146108d557600080fd5b600060208284031215610c5b57600080fd5b8135610b2e81610c34565b6020808252818101527f4f776e61626c653a2063616c6c6572206973206e6f7420746865206f776e6572604082015260600190565b600060208284031215610cad57600080fd5b81518015158114610b2e57600080fd5b634e487b7160e01b600052601160045260246000fd5b6000816000190483118215151615610ced57610ced610cbd565b500290565b60008219821115610d0557610d05610cbd565b500190565b6020808252603d908201527f546f206d616b6520746865207769746864726177616c2c20796f75206e65656460408201527f20746f20726567697374657220612076616c696420616464726573732e000000606082015260800190565b600060208284031215610d7957600080fd5b5051919050565b60208082526032908201527f596f7520646f206e6f74206861766520656e6f7567682062616c616e636520666040820152711bdc881d1a1a5cc81dda5d1a191c985dd85b60721b606082015260800190565b600060208083528351808285015260005b81811015610dff57858101830151858201604001528201610de3565b81811115610e11576000604083870101525b50601f01601f1916929092016040019392505050565b600082610e4457634e487b7160e01b600052601260045260246000fd5b50049056fea2646970667358221220cc4c08c2a08a06037b50ab195d4df677e3bea213ef04b94d92ef8ce3925a079b64736f6c63430008090033",
  "linkReferences": {},
  "deployedLinkReferences": {}
}